{
  "transactions": [
    {
      "hash": "0xb0b2ce19d9329c1fd40ab5892bf8fa47e89d38a0a2396584f1a2f7a9ff220334",
      "transactionType": "CALL",
      "contractName": null,
      "contractAddress": "0x779877a7b0d9e8603169ddbd7836e478b4624789",
      "function": "transferAndCall(address,uint256,bytes)",
      "arguments": [
        "0x9DdfaCa8183c41ad55329BdeeD9F6A8d53168B1B",
        "3000000000000000000",
        "0xd0dcb9460a310ba7b5ed5c807a9a071c035c7521ad213eecf1d3eaa0839f9608"
      ],
      "transaction": {
        "from": "0xb00e8a2de865080dd706f34642289aca5e5958ca",
        "to": "0x779877a7b0d9e8603169ddbd7836e478b4624789",
        "gas": "0x1c1ff",
        "value": "0x0",
        "input": "0x4000aea00000000000000000000000009ddfaca8183c41ad55329bdeed9f6a8d53168b1b00000000000000000000000000000000000000000000000029a2241af62c000000000000000000000000000000000000000000000000000000000000000000600000000000000000000000000000000000000000000000000000000000000020d0dcb9460a310ba7b5ed5c807a9a071c035c7521ad213eecf1d3eaa0839f9608",
        "nonce": "0x1",
        "chainId": "0xaa36a7"
      },
      "additionalContracts": [],
      "isFixedGasLimit": false
    }
  ],
  "receipts": [
    {
      "status": "0x1",
      "cumulativeGasUsed": "0x193a09f",
      "logs": [
        {
          "address": "0x779877a7b0d9e8603169ddbd7836e478b4624789",
          "topics": [
            "0xddf252ad1be2c89b69c2b068fc378daa952ba7f163c4a11628f55a4df523b3ef",
            "0x000000000000000000000000b00e8a2de865080dd706f34642289aca5e5958ca",
            "0x0000000000000000000000009ddfaca8183c41ad55329bdeed9f6a8d53168b1b"
          ],
          "data": "0x00000000000000000000000000000000000000000000000029a2241af62c0000",
          "blockHash": "0x8364444fef83321b83a94daadf5842e759a071827c33a653e97d015b1918e08d",
          "blockNumber": "0x7fe8c3",
          "blockTimestamp": "0x682f3284",
          "transactionHash": "0xb0b2ce19d9329c1fd40ab5892bf8fa47e89d38a0a2396584f1a2f7a9ff220334",
          "transactionIndex": "0xea",
          "logIndex": "0x1d3",
          "removed": false
        },
        {
          "address": "0x779877a7b0d9e8603169ddbd7836e478b4624789",
          "topics": [
            "0xe19260aff97b920c7df27010903aeb9c8d2be5d310a2c67824cf3f15396e4c16",
            "0x000000000000000000000000b00e8a2de865080dd706f34642289aca5e5958ca",
            "0x0000000000000000000000009ddfaca8183c41ad55329bdeed9f6a8d53168b1b"
          ],
          "data": "0x00000000000000000000000000000000000000000000000029a2241af62c000000000000000000000000000000000000000000000000000000000000000000400000000000000000000000000000000000000000000000000000000000000020d0dcb9460a310ba7b5ed5c807a9a071c035c7521ad213eecf1d3eaa0839f9608",
          "blockHash": "0x8364444fef83321b83a94daadf5842e759a071827c33a653e97d015b1918e08d",
          "blockNumber": "0x7fe8c3",
          "blockTimestamp": "0x682f3284",
          "transactionHash": "0xb0b2ce19d9329c1fd40ab5892bf8fa47e89d38a0a2396584f1a2f7a9ff220334",
          "transactionIndex": "0xea",
          "logIndex": "0x1d4",
          "removed": false
        },
        {
          "address": "0x9ddfaca8183c41ad55329bdeed9f6a8d53168b1b",
          "topics": [
            "0x1ced9348ff549fceab2ac57cd3a9de38edaaab274b725ee82c23e8fc8c4eec7a",
            "0xd0dcb9460a310ba7b5ed5c807a9a071c035c7521ad213eecf1d3eaa0839f9608"
          ],
          "data": "0x000000000000000000000000000000000000000000000000000000000000000000000000000000000000000000000000000000000000000029a2241af62c0000",
          "blockHash": "0x8364444fef83321b83a94daadf5842e759a071827c33a653e97d015b1918e08d",
          "blockNumber": "0x7fe8c3",
          "blockTimestamp": "0x682f3284",
          "transactionHash": "0xb0b2ce19d9329c1fd40ab5892bf8fa47e89d38a0a2396584f1a2f7a9ff220334",
          "transactionIndex": "0xea",
          "logIndex": "0x1d5",
          "removed": false
        }
      ],
      "logsBloom": "0x00000004000000000000000000000000000000000020000000000000020000000000000000000000000000000000000000000000000000000000000000000000000000000000000000000008000000000000000000000000000020000020000088000000000000000002000000000000000000000000000000000010000040000000000000000000000000010000800000000020000000000000000000000000000000000000000000000000010000000008000000000000000004000000000000000002000000000000000000200000000000000000000100000000000000000010000000000000800000000000000000000000000000000000000000104000",
      "type": "0x2",
      "transactionHash": "0xb0b2ce19d9329c1fd40ab5892bf8fa47e89d38a0a2396584f1a2f7a9ff220334",
      "transactionIndex": "0xea",
      "blockHash": "0x8364444fef83321b83a94daadf5842e759a071827c33a653e97d015b1918e08d",
      "blockNumber": "0x7fe8c3",
      "gasUsed": "0x133b1",
      "effectiveGasPrice": "0x120d648",
      "from": "0xb00e8a2de865080dd706f34642289aca5e5958ca",
      "to": "0x779877a7b0d9e8603169ddbd7836e478b4624789",
      "contractAddress": null
    }
  ],
  "libraries": [],
  "pending": [],
  "returns": {},
  "timestamp": 1747923590,
  "chain": 11155111,
  "commit": "c97d427"
}